{
  "contractName": "Graphs",
  "abi": [
    {
      "inputs": [
        {
          "internalType": "uint256",
          "name": "date",
          "type": "uint256"
        },
        {
          "internalType": "string",
          "name": "newKeywordsString",
          "type": "string"
        },
        {
          "internalType": "uint256",
          "name": "newQuestions",
          "type": "uint256"
        },
        {
          "internalType": "uint256",
          "name": "newAnswers",
          "type": "uint256"
        }
      ],
      "name": "addToDay",
      "outputs": [],
      "stateMutability": "nonpayable",
      "type": "function"
    },
    {
      "inputs": [
        {
          "internalType": "uint256",
          "name": "dateFrom",
          "type": "uint256"
        },
        {
          "internalType": "uint256",
          "name": "dateTo",
          "type": "uint256"
        }
      ],
      "name": "getDays",
      "outputs": [
        {
          "internalType": "string[]",
          "name": "keywords",
          "type": "string[]"
        },
        {
          "internalType": "uint256[]",
          "name": "questions",
          "type": "uint256[]"
        },
        {
          "internalType": "uint256[]",
          "name": "answers",
          "type": "uint256[]"
        }
      ],
      "stateMutability": "view",
      "type": "function"
    }
  ],
  "bytecode": "0x608060405234801561001057600080fd5b50611115806100206000396000f3fe608060405234801561001057600080fd5b50600436106100365760003560e01c80633c4b49051461003b578063b7a2416014610057575b600080fd5b61005560048036038101906100509190610ad5565b610089565b005b610071600480360381019061006c9190610b58565b6101bd565b60405161008093929190610da0565b60405180910390f35b60006100d36040518060400160405280600181526020017f2c000000000000000000000000000000000000000000000000000000000000008152508561053c90919063ffffffff16565b905060005b815181101561015d5760008087815260200190815260200160002060000182828151811061010957610108610dec565b5b60200260200101519080600181540180825580915050600190039060005260206000200160009091909190915090805190602001906101499291906108a2565b50808061015590610e4a565b9150506100d8565b508260008087815260200190815260200160002060010160008282546101839190610e92565b925050819055508160008087815260200190815260200160002060020160008282546101af9190610e92565b925050819055505050505050565b606080606060006201518086866101d49190610ee8565b6101de9190610f4b565b1461021e576040517f08c379a000000000000000000000000000000000000000000000000000000000815260040161021590610fff565b60405180910390fd5b600060016201518087876102329190610ee8565b61023c919061101f565b6102469190610e92565b90506000808790505b86811161029257600080828152602001908152602001600020600001805490508261027a9190610e92565b9150620151808161028b9190610e92565b905061024f565b508067ffffffffffffffff8111156102ad576102ac6109aa565b5b6040519080825280602002602001820160405280156102e057816020015b60608152602001906001900390816102cb5790505b5094508167ffffffffffffffff8111156102fd576102fc6109aa565b5b60405190808252806020026020018201604052801561032b5781602001602082028036833780820191505090505b5093508167ffffffffffffffff811115610348576103476109aa565b5b6040519080825280602002602001820160405280156103765781602001602082028036833780820191505090505b50925060008060008990505b8881116105305760005b600080838152602001908152602001600020600001805490508110156104a35760008083815260200190815260200160002060000181815481106103d3576103d2610dec565b5b9060005260206000200180546103e89061107f565b80601f01602080910402602001604051908101604052809291908181526020018280546104149061107f565b80156104615780601f1061043657610100808354040283529160200191610461565b820191906000526020600020905b81548152906001019060200180831161044457829003601f168201915b505050505089858061047290610e4a565b96508151811061048557610484610dec565b5b6020026020010181905250808061049b90610e4a565b91505061038c565b50600080828152602001908152602001600020600101548783815181106104cd576104cc610dec565b5b602002602001018181525050600080828152602001908152602001600020600201548683806104fb90610e4a565b94508151811061050e5761050d610dec565b5b60200260200101818152505062015180816105299190610e92565b9050610382565b50505050509250925092565b60606000839050600080600190505b600183516105599190610ee8565b8210156105bf57600061056d8787856107a4565b90507fffffffffffffffffffffffffffffffffffffffffffffffffffffffffffffffff810361059c57506105bf565b81806105a790610e4a565b9250506001816105b79190610e92565b92505061054b565b8067ffffffffffffffff8111156105d9576105d86109aa565b5b60405190808252806020026020018201604052801561060c57816020015b60608152602001906001900390816105f75790505b50935060009150600090505b600183516106269190610ee8565b82101561079b57600061063a8787856107a4565b90507fffffffffffffffffffffffffffffffffffffffffffffffffffffffffffffffff810361066857835190505b600083826106769190610ee8565b67ffffffffffffffff81111561068f5761068e6109aa565b5b6040519080825280601f01601f1916602001820160405280156106c15781602001600182028036833780820191505090505b50905060008190506000808690505b84811015610757578781815181106106eb576106ea610dec565b5b602001015160f81c60f81b83838061070290610e4a565b94508151811061071557610714610dec565b5b60200101907effffffffffffffffffffffffffffffffffffffffffffffffffffffffffffff1916908160001a905350808061074f90610e4a565b9150506106d0565b506001846107659190610e92565b95508188868061077490610e4a565b97508151811061078757610786610dec565b5b602002602001018190525050505050610618565b50505092915050565b600080849050600084905060018151146107c1576107c06110b0565b5b60008490505b825181101561087457816000815181106107e4576107e3610dec565b5b602001015160f81c60f81b7effffffffffffffffffffffffffffffffffffffffffffffffffffffffffffff191683828151811061082457610823610dec565b5b602001015160f81c60f81b7effffffffffffffffffffffffffffffffffffffffffffffffffffffffffffff1916036108615780935050505061089b565b808061086c90610e4a565b9150506107c7565b507fffffffffffffffffffffffffffffffffffffffffffffffffffffffffffffffff925050505b9392505050565b8280546108ae9061107f565b90600052602060002090601f0160209004810192826108d05760008555610917565b82601f106108e957805160ff1916838001178555610917565b82800160010185558215610917579182015b828111156109165782518255916020019190600101906108fb565b5b5090506109249190610928565b5090565b5b80821115610941576000816000905550600101610929565b5090565b6000604051905090565b600080fd5b600080fd5b6000819050919050565b61096c81610959565b811461097757600080fd5b50565b60008135905061098981610963565b92915050565b600080fd5b600080fd5b6000601f19601f8301169050919050565b7f4e487b7100000000000000000000000000000000000000000000000000000000600052604160045260246000fd5b6109e282610999565b810181811067ffffffffffffffff82111715610a0157610a006109aa565b5b80604052505050565b6000610a14610945565b9050610a2082826109d9565b919050565b600067ffffffffffffffff821115610a4057610a3f6109aa565b5b610a4982610999565b9050602081019050919050565b82818337600083830152505050565b6000610a78610a7384610a25565b610a0a565b905082815260208101848484011115610a9457610a93610994565b5b610a9f848285610a56565b509392505050565b600082601f830112610abc57610abb61098f565b5b8135610acc848260208601610a65565b91505092915050565b60008060008060808587031215610aef57610aee61094f565b5b6000610afd8782880161097a565b945050602085013567ffffffffffffffff811115610b1e57610b1d610954565b5b610b2a87828801610aa7565b9350506040610b3b8782880161097a565b9250506060610b4c8782880161097a565b91505092959194509250565b60008060408385031215610b6f57610b6e61094f565b5b6000610b7d8582860161097a565b9250506020610b8e8582860161097a565b9150509250929050565b600081519050919050565b600082825260208201905092915050565b6000819050602082019050919050565b600081519050919050565b600082825260208201905092915050565b60005b83811015610bfe578082015181840152602081019050610be3565b83811115610c0d576000848401525b50505050565b6000610c1e82610bc4565b610c288185610bcf565b9350610c38818560208601610be0565b610c4181610999565b840191505092915050565b6000610c588383610c13565b905092915050565b6000602082019050919050565b6000610c7882610b98565b610c828185610ba3565b935083602082028501610c9485610bb4565b8060005b85811015610cd05784840389528151610cb18582610c4c565b9450610cbc83610c60565b925060208a01995050600181019050610c98565b50829750879550505050505092915050565b600081519050919050565b600082825260208201905092915050565b6000819050602082019050919050565b610d1781610959565b82525050565b6000610d298383610d0e565b60208301905092915050565b6000602082019050919050565b6000610d4d82610ce2565b610d578185610ced565b9350610d6283610cfe565b8060005b83811015610d93578151610d7a8882610d1d565b9750610d8583610d35565b925050600181019050610d66565b5085935050505092915050565b60006060820190508181036000830152610dba8186610c6d565b90508181036020830152610dce8185610d42565b90508181036040830152610de28184610d42565b9050949350505050565b7f4e487b7100000000000000000000000000000000000000000000000000000000600052603260045260246000fd5b7f4e487b7100000000000000000000000000000000000000000000000000000000600052601160045260246000fd5b6000610e5582610959565b91507fffffffffffffffffffffffffffffffffffffffffffffffffffffffffffffffff8203610e8757610e86610e1b565b5b600182019050919050565b6000610e9d82610959565b9150610ea883610959565b9250827fffffffffffffffffffffffffffffffffffffffffffffffffffffffffffffffff03821115610edd57610edc610e1b565b5b828201905092915050565b6000610ef382610959565b9150610efe83610959565b925082821015610f1157610f10610e1b565b5b828203905092915050565b7f4e487b7100000000000000000000000000000000000000000000000000000000600052601260045260246000fd5b6000610f5682610959565b9150610f6183610959565b925082610f7157610f70610f1c565b5b828206905092915050565b600082825260208201905092915050565b7f446174657320676976656e206d757374206861766520612074696d65206f662060008201527f30303a30303a3030000000000000000000000000000000000000000000000000602082015250565b6000610fe9602883610f7c565b9150610ff482610f8d565b604082019050919050565b6000602082019050818103600083015261101881610fdc565b9050919050565b600061102a82610959565b915061103583610959565b92508261104557611044610f1c565b5b828204905092915050565b7f4e487b7100000000000000000000000000000000000000000000000000000000600052602260045260246000fd5b6000600282049050600182168061109757607f821691505b6020821081036110aa576110a9611050565b5b50919050565b7f4e487b7100000000000000000000000000000000000000000000000000000000600052600160045260246000fdfea2646970667358221220682ddc6e61840aa7c8f08e485d9874c2d05aaa40f0c694dc7f2ae7d1a2a294f864736f6c634300080e0033",
  "immutableReferences": {},
  "source": "// SPDX-License-Identifier: MIT\npragma solidity ^0.8.7;\nimport \"./Strings.sol\";\n\ncontract Graphs {\n    using Strings for string;\n\n    // state variables\n    struct Day {\n        string[] keywords;\n        uint questions;\n        uint answers;\n    }\n\n    // map a uint that represents date to a custom struct\n    mapping(uint => Day) daysStorage;\n\n    // add keywords, question, answers\n    function addToDay(uint date, string memory newKeywordsString, uint newQuestions, uint newAnswers) public {\n        string[] memory newKeywords = newKeywordsString.split(\",\");\n        // add new keywords to day\n        for (uint i = 0; i < newKeywords.length; i++) {\n            daysStorage[date].keywords.push(newKeywords[i]);\n        }\n        // update questions/answers number\n        daysStorage[date].questions += newQuestions;\n        daysStorage[date].answers += newAnswers;\n    }\n\n    // get (keywords, questionsPerDay, answersPerDay) for a period of time (dateFrom, DateTo)\n    function getDays(uint dateFrom, uint dateTo) public view\n    returns (string[] memory keywords, uint[] memory questions, uint[] memory answers) {\n        require((dateTo - dateFrom) % 86400 == 0 , \"Dates given must have a time of 00:00:00\");\n        uint totalDays = ((dateTo - dateFrom) / 86400) + 1;\n        \n        // get number of all keywords that will be returned to create fixed size array\n        uint keywordsSize = 0;\n        for (uint tempDate = dateFrom; tempDate <= dateTo; tempDate += 86400) {\n            keywordsSize += daysStorage[tempDate].keywords.length;\n        }\n\n        // define accumulators to return\n        keywords = new string[](keywordsSize);\n        questions = new uint[](totalDays);\n        answers = new uint[](totalDays);\n\n        // add (all keywords)/(questions per day)/(answers per day) to return arrays\n        uint keywordsIndex = 0;\n        uint dayIndex = 0;\n        for (uint tempDate = dateFrom; tempDate <= dateTo; tempDate += 86400) {\n            for (uint k = 0; k < daysStorage[tempDate].keywords.length; k++) {\n                keywords[keywordsIndex++] = daysStorage[tempDate].keywords[k];\n            }\n            questions[dayIndex] = daysStorage[tempDate].questions;\n            answers[dayIndex++] = daysStorage[tempDate].answers;\n        }\n        return (keywords, questions, answers);\n    }\n\n}",
  "sourcePath": "/home/panos/Documents/GitHub/NTUA-Diploma-Thesis/blockchain/truffle/contracts/Graphs.sol",
  "compiler": {
    "name": "solc",
    "version": "0.8.14+commit.80d49f37.Emscripten.clang"
  },
  "schemaVersion": "3.4.7",
  "updatedAt": "2022-06-02T16:07:21.570Z",
  "devdoc": {
    "kind": "dev",
    "methods": {},
    "version": 1
  },
  "userdoc": {
    "kind": "user",
    "methods": {},
    "version": 1
  }
}