{
  "contractName": "Graphs",
  "abi": [
    {
      "inputs": [
        {
          "internalType": "uint256",
          "name": "date",
          "type": "uint256"
        },
        {
          "internalType": "string",
          "name": "newKeywordsString",
          "type": "string"
        },
        {
          "internalType": "uint256",
          "name": "newQuestions",
          "type": "uint256"
        },
        {
          "internalType": "uint256",
          "name": "newAnswers",
          "type": "uint256"
        },
        {
          "internalType": "uint256",
          "name": "newNoKeywords",
          "type": "uint256"
        }
      ],
      "name": "addToDay",
      "outputs": [],
      "stateMutability": "nonpayable",
      "type": "function"
    },
    {
      "inputs": [
        {
          "internalType": "uint256",
          "name": "dateFrom",
          "type": "uint256"
        },
        {
          "internalType": "uint256",
          "name": "dateTo",
          "type": "uint256"
        }
      ],
      "name": "getDays",
      "outputs": [
        {
          "internalType": "string[]",
          "name": "keywords",
          "type": "string[]"
        },
        {
          "internalType": "uint256[]",
          "name": "questions",
          "type": "uint256[]"
        },
        {
          "internalType": "uint256[]",
          "name": "answers",
          "type": "uint256[]"
        },
        {
          "internalType": "uint256[]",
          "name": "noKeywords",
          "type": "uint256[]"
        }
      ],
      "stateMutability": "view",
      "type": "function",
      "constant": true
    }
  ],
  "bytecode": "0x608060405234801561001057600080fd5b506115d8806100206000396000f3fe608060405234801561001057600080fd5b50600436106100365760003560e01c8063b7a241601461003b578063ff9836b41461006e575b600080fd5b61005560048036038101906100509190610bbb565b61008a565b6040516100659493929190610e14565b60405180910390f35b61008860048036038101906100839190610faa565b610515565b005b606080606080600062015180876100a19190611070565b146100e1576040517f08c379a00000000000000000000000000000000000000000000000000000000081526004016100d890611124565b60405180910390fd5b600062015180866100f29190611070565b14610132576040517f08c379a0000000000000000000000000000000000000000000000000000000008152600401610129906111b6565b60405180910390fd5b84861115610175576040517f08c379a000000000000000000000000000000000000000000000000000000000815260040161016c90611248565b60405180910390fd5b600060016201518088886101899190611297565b61019391906112cb565b61019d91906112fc565b90506000808890505b8781116101e95760008082815260200190815260200160002060000180549050826101d191906112fc565b915062015180816101e291906112fc565b90506101a6565b508067ffffffffffffffff81111561020457610203610e7f565b5b60405190808252806020026020018201604052801561023757816020015b60608152602001906001900390816102225790505b5095508167ffffffffffffffff81111561025457610253610e7f565b5b6040519080825280602002602001820160405280156102825781602001602082028036833780820191505090505b5094508167ffffffffffffffff81111561029f5761029e610e7f565b5b6040519080825280602002602001820160405280156102cd5781602001602082028036833780820191505090505b5093508167ffffffffffffffff8111156102ea576102e9610e7f565b5b6040519080825280602002602001820160405280156103185781602001602082028036833780820191505090505b50925060008060008a90505b8981116105075760005b6000808381526020019081526020016000206000018054905081101561044557600080838152602001908152602001600020600001818154811061037557610374611352565b5b90600052602060002001805461038a906113b0565b80601f01602080910402602001604051908101604052809291908181526020018280546103b6906113b0565b80156104035780601f106103d857610100808354040283529160200191610403565b820191906000526020600020905b8154815290600101906020018083116103e657829003601f168201915b50505050508a8580610414906113e1565b96508151811061042757610426611352565b5b6020026020010181905250808061043d906113e1565b91505061032e565b506000808281526020019081526020016000206001015488838151811061046f5761046e611352565b5b602002602001018181525050600080828152602001908152602001600020600201548783815181106104a4576104a3611352565b5b602002602001018181525050600080828152602001908152602001600020600301548683806104d2906113e1565b9450815181106104e5576104e4611352565b5b602002602001018181525050620151808161050091906112fc565b9050610324565b505050505092959194509250565b600062015180866105269190611070565b14610566576040517f08c379a000000000000000000000000000000000000000000000000000000000815260040161055d9061149b565b60405180910390fd5b60008451146106995760018161057c91906112fc565b8310156105be576040517f08c379a00000000000000000000000000000000000000000000000000000000081526004016105b590611553565b60405180910390fd5b60006106086040518060400160405280600181526020017f2c000000000000000000000000000000000000000000000000000000000000008152508661076890919063ffffffff16565b905060005b81518110156106925760008088815260200190815260200160002060000182828151811061063e5761063d611352565b5b602002602001015190806001815401808255809150506001900390600052602060002001600090919091909150908051906020019061067e929190610ace565b50808061068a906113e1565b91505061060d565b50506106dd565b808310156106dc576040517f08c379a00000000000000000000000000000000000000000000000000000000081526004016106d390611553565b60405180910390fd5b5b82600080878152602001908152602001600020600101600082825461070291906112fc565b9250508190555081600080878152602001908152602001600020600201600082825461072e91906112fc565b9250508190555080600080878152602001908152602001600020600301600082825461075a91906112fc565b925050819055505050505050565b60606000839050600080600190505b600183516107859190611297565b8210156107eb5760006107998787856109d0565b90507fffffffffffffffffffffffffffffffffffffffffffffffffffffffffffffffff81036107c857506107eb565b81806107d3906113e1565b9250506001816107e391906112fc565b925050610777565b8067ffffffffffffffff81111561080557610804610e7f565b5b60405190808252806020026020018201604052801561083857816020015b60608152602001906001900390816108235790505b50935060009150600090505b600183516108529190611297565b8210156109c75760006108668787856109d0565b90507fffffffffffffffffffffffffffffffffffffffffffffffffffffffffffffffff810361089457835190505b600083826108a29190611297565b67ffffffffffffffff8111156108bb576108ba610e7f565b5b6040519080825280601f01601f1916602001820160405280156108ed5781602001600182028036833780820191505090505b50905060008190506000808690505b848110156109835787818151811061091757610916611352565b5b602001015160f81c60f81b83838061092e906113e1565b94508151811061094157610940611352565b5b60200101907effffffffffffffffffffffffffffffffffffffffffffffffffffffffffffff1916908160001a905350808061097b906113e1565b9150506108fc565b5060018461099191906112fc565b9550818886806109a0906113e1565b9750815181106109b3576109b2611352565b5b602002602001018190525050505050610844565b50505092915050565b600080849050600084905060018151146109ed576109ec611573565b5b60008490505b8251811015610aa05781600081518110610a1057610a0f611352565b5b602001015160f81c60f81b7effffffffffffffffffffffffffffffffffffffffffffffffffffffffffffff1916838281518110610a5057610a4f611352565b5b602001015160f81c60f81b7effffffffffffffffffffffffffffffffffffffffffffffffffffffffffffff191603610a8d57809350505050610ac7565b8080610a98906113e1565b9150506109f3565b507fffffffffffffffffffffffffffffffffffffffffffffffffffffffffffffffff925050505b9392505050565b828054610ada906113b0565b90600052602060002090601f016020900481019282610afc5760008555610b43565b82601f10610b1557805160ff1916838001178555610b43565b82800160010185558215610b43579182015b82811115610b42578251825591602001919060010190610b27565b5b509050610b509190610b54565b5090565b5b80821115610b6d576000816000905550600101610b55565b5090565b6000604051905090565b600080fd5b600080fd5b6000819050919050565b610b9881610b85565b8114610ba357600080fd5b50565b600081359050610bb581610b8f565b92915050565b60008060408385031215610bd257610bd1610b7b565b5b6000610be085828601610ba6565b9250506020610bf185828601610ba6565b9150509250929050565b600081519050919050565b600082825260208201905092915050565b6000819050602082019050919050565b600081519050919050565b600082825260208201905092915050565b60005b83811015610c61578082015181840152602081019050610c46565b83811115610c70576000848401525b50505050565b6000601f19601f8301169050919050565b6000610c9282610c27565b610c9c8185610c32565b9350610cac818560208601610c43565b610cb581610c76565b840191505092915050565b6000610ccc8383610c87565b905092915050565b6000602082019050919050565b6000610cec82610bfb565b610cf68185610c06565b935083602082028501610d0885610c17565b8060005b85811015610d445784840389528151610d258582610cc0565b9450610d3083610cd4565b925060208a01995050600181019050610d0c565b50829750879550505050505092915050565b600081519050919050565b600082825260208201905092915050565b6000819050602082019050919050565b610d8b81610b85565b82525050565b6000610d9d8383610d82565b60208301905092915050565b6000602082019050919050565b6000610dc182610d56565b610dcb8185610d61565b9350610dd683610d72565b8060005b83811015610e07578151610dee8882610d91565b9750610df983610da9565b925050600181019050610dda565b5085935050505092915050565b60006080820190508181036000830152610e2e8187610ce1565b90508181036020830152610e428186610db6565b90508181036040830152610e568185610db6565b90508181036060830152610e6a8184610db6565b905095945050505050565b600080fd5b600080fd5b7f4e487b7100000000000000000000000000000000000000000000000000000000600052604160045260246000fd5b610eb782610c76565b810181811067ffffffffffffffff82111715610ed657610ed5610e7f565b5b80604052505050565b6000610ee9610b71565b9050610ef58282610eae565b919050565b600067ffffffffffffffff821115610f1557610f14610e7f565b5b610f1e82610c76565b9050602081019050919050565b82818337600083830152505050565b6000610f4d610f4884610efa565b610edf565b905082815260208101848484011115610f6957610f68610e7a565b5b610f74848285610f2b565b509392505050565b600082601f830112610f9157610f90610e75565b5b8135610fa1848260208601610f3a565b91505092915050565b600080600080600060a08688031215610fc657610fc5610b7b565b5b6000610fd488828901610ba6565b955050602086013567ffffffffffffffff811115610ff557610ff4610b80565b5b61100188828901610f7c565b945050604061101288828901610ba6565b935050606061102388828901610ba6565b925050608061103488828901610ba6565b9150509295509295909350565b7f4e487b7100000000000000000000000000000000000000000000000000000000600052601260045260246000fd5b600061107b82610b85565b915061108683610b85565b92508261109657611095611041565b5b828206905092915050565b600082825260208201905092915050565b7f4669727374206461746520676976656e206d757374206861766520612074696d60008201527f65206f662030303a30303a303000000000000000000000000000000000000000602082015250565b600061110e602d836110a1565b9150611119826110b2565b604082019050919050565b6000602082019050818103600083015261113d81611101565b9050919050565b7f5365636f6e64206461746520676976656e206d7573742068617665206120746960008201527f6d65206f662030303a30303a3030000000000000000000000000000000000000602082015250565b60006111a0602e836110a1565b91506111ab82611144565b604082019050919050565b600060208201905081810360008301526111cf81611193565b9050919050565b7f5365636f6e64206461746520676976656e206d7573742062652074686520736160008201527f6d65206f72206c61746572207468616e20746865206669727374206461746500602082015250565b6000611232603f836110a1565b915061123d826111d6565b604082019050919050565b6000602082019050818103600083015261126181611225565b9050919050565b7f4e487b7100000000000000000000000000000000000000000000000000000000600052601160045260246000fd5b60006112a282610b85565b91506112ad83610b85565b9250828210156112c0576112bf611268565b5b828203905092915050565b60006112d682610b85565b91506112e183610b85565b9250826112f1576112f0611041565b5b828204905092915050565b600061130782610b85565b915061131283610b85565b9250827fffffffffffffffffffffffffffffffffffffffffffffffffffffffffffffffff0382111561134757611346611268565b5b828201905092915050565b7f4e487b7100000000000000000000000000000000000000000000000000000000600052603260045260246000fd5b7f4e487b7100000000000000000000000000000000000000000000000000000000600052602260045260246000fd5b600060028204905060018216806113c857607f821691505b6020821081036113db576113da611381565b5b50919050565b60006113ec82610b85565b91507fffffffffffffffffffffffffffffffffffffffffffffffffffffffffffffffff820361141e5761141d611268565b5b600182019050919050565b7f4461746520676976656e206d757374206861766520612074696d65206f66203060008201527f303a30303a30302e000000000000000000000000000000000000000000000000602082015250565b60006114856028836110a1565b915061149082611429565b604082019050919050565b600060208201905081810360008301526114b481611478565b9050919050565b7f546865206e756d626572206f66207175657374696f6e7320646f65736e27742060008201527f6d61746368207468652073756d206f66207175657374696f6e7320776974682060208201527f616e6420776974686f7574206b6579776f7264732e0000000000000000000000604082015250565b600061153d6055836110a1565b9150611548826114bb565b606082019050919050565b6000602082019050818103600083015261156c81611530565b9050919050565b7f4e487b7100000000000000000000000000000000000000000000000000000000600052600160045260246000fdfea26469706673582212209c6117a5c3401d4326ffc6515e99bba5c36d0f97a37cfd53e9ebac0004ee3d9064736f6c634300080e0033",
  "immutableReferences": {},
  "source": "// SPDX-License-Identifier: MIT\npragma solidity ^0.8.7;\nimport \"./Strings.sol\";\n\ncontract Graphs {\n    using Strings for string;\n\n    // state variables\n    struct Day {\n        string[] keywords;\n        uint questions;\n        uint answers;\n        uint noKeywords; // number of questions that don't have keywords\n    }\n\n    // map a uint that represents date to a custom struct\n    mapping(uint => Day) daysStorage;\n\n    // add keywords, question, answers, noKeywords\n    function addToDay(uint date, string memory newKeywordsString, uint newQuestions, uint newAnswers, uint newNoKeywords) public {\n        require(date % 86400 == 0 , \"Date given must have a time of 00:00:00.\");\n        // keywords are given\n        if (bytes(newKeywordsString).length != 0) {\n            require(newQuestions >= (newNoKeywords + 1), \"The number of questions doesn't match the sum of questions with and without keywords.\");\n            string[] memory newKeywords = newKeywordsString.split(\",\");\n            // add new keywords to day\n            for (uint i = 0; i < newKeywords.length; i++) {\n                daysStorage[date].keywords.push(newKeywords[i]);\n            }\n        }\n        else {\n            require(newQuestions >= newNoKeywords, \"The number of questions doesn't match the sum of questions with and without keywords.\");\n        }\n        // update questions/answers/noKeywords number\n        daysStorage[date].questions += newQuestions;\n        daysStorage[date].answers += newAnswers;\n        daysStorage[date].noKeywords += newNoKeywords;\n    }\n\n    // get (keywords, questionsPerDay, answersPerDay) for a period of time (dateFrom, DateTo)\n    function getDays(uint dateFrom, uint dateTo) public view\n    returns (string[] memory keywords, uint[] memory questions, uint[] memory answers, uint[] memory noKeywords) {\n        require(dateFrom % 86400 == 0 , \"First date given must have a time of 00:00:00\");\n        require(dateTo % 86400 == 0 , \"Second date given must have a time of 00:00:00\");\n        require(dateFrom <= dateTo , \"Second date given must be the same or later than the first date\");\n        \n        uint totalDays = ((dateTo - dateFrom) / 86400) + 1;\n        \n        // get number of all keywords that will be returned to create fixed size array\n        uint keywordsSize = 0;\n        for (uint tempDate = dateFrom; tempDate <= dateTo; tempDate += 86400) {\n            keywordsSize += daysStorage[tempDate].keywords.length;\n        }\n\n        // define accumulators to return\n        keywords = new string[](keywordsSize);\n        questions = new uint[](totalDays);\n        answers = new uint[](totalDays);\n        noKeywords = new uint[](totalDays);\n\n        // add (all keywords)/(questions per day)/(answers per day)/(noKeywords per day) to return arrays\n        uint keywordsIndex = 0;\n        uint dayIndex = 0;\n        for (uint tempDate = dateFrom; tempDate <= dateTo; tempDate += 86400) {\n            for (uint k = 0; k < daysStorage[tempDate].keywords.length; k++) {\n                keywords[keywordsIndex++] = daysStorage[tempDate].keywords[k];\n            }\n            questions[dayIndex] = daysStorage[tempDate].questions;\n            answers[dayIndex] = daysStorage[tempDate].answers;\n            noKeywords[dayIndex++] = daysStorage[tempDate].noKeywords;\n        }\n        return (keywords, questions, answers, noKeywords);\n    }\n}",
  "sourcePath": "/home/panos/Documents/GitHub/NTUA-Diploma-Thesis/blockchain-frontend/truffle/contracts/Graphs.sol",
  "compiler": {
    "name": "solc",
    "version": "0.8.14+commit.80d49f37.Emscripten.clang"
  },
  "schemaVersion": "3.4.7",
  "updatedAt": "2022-06-09T08:26:49.847Z",
  "networkType": "ethereum",
  "devdoc": {
    "kind": "dev",
    "methods": {},
    "version": 1
  },
  "userdoc": {
    "kind": "user",
    "methods": {},
    "version": 1
  }
}