{
  "contractName": "Graphs",
  "abi": [
    {
      "inputs": [
        {
          "internalType": "uint256",
          "name": "date",
          "type": "uint256"
        },
        {
          "internalType": "string",
          "name": "newKeywordsString",
          "type": "string"
        },
        {
          "internalType": "uint256",
          "name": "newQuestions",
          "type": "uint256"
        },
        {
          "internalType": "uint256",
          "name": "newAnswers",
          "type": "uint256"
        }
      ],
      "name": "addToDay",
      "outputs": [],
      "stateMutability": "nonpayable",
      "type": "function"
    },
    {
      "inputs": [
        {
          "internalType": "uint256",
          "name": "dateFrom",
          "type": "uint256"
        },
        {
          "internalType": "uint256",
          "name": "dateTo",
          "type": "uint256"
        }
      ],
      "name": "getDays",
      "outputs": [
        {
          "internalType": "string[]",
          "name": "keywords",
          "type": "string[]"
        },
        {
          "internalType": "uint256[]",
          "name": "questions",
          "type": "uint256[]"
        },
        {
          "internalType": "uint256[]",
          "name": "answers",
          "type": "uint256[]"
        }
      ],
      "stateMutability": "view",
      "type": "function",
      "constant": true
    }
  ],
  "bytecode": "0x608060405234801561001057600080fd5b506111f8806100206000396000f3fe608060405234801561001057600080fd5b50600436106100365760003560e01c80633c4b49051461003b578063b7a2416014610057575b600080fd5b61005560048036038101906100509190610b26565b610089565b005b610071600480360381019061006c9190610ba9565b61020e565b60405161008093929190610df1565b60405180910390f35b6000620151808561009a9190610e6c565b146100da576040517f08c379a00000000000000000000000000000000000000000000000000000000081526004016100d190610f20565b60405180910390fd5b60006101246040518060400160405280600181526020017f2c000000000000000000000000000000000000000000000000000000000000008152508561058d90919063ffffffff16565b905060005b81518110156101ae5760008087815260200190815260200160002060000182828151811061015a57610159610f40565b5b602002602001015190806001815401808255809150506001900390600052602060002001600090919091909150908051906020019061019a9291906108f3565b5080806101a690610f9e565b915050610129565b508260008087815260200190815260200160002060010160008282546101d49190610fe6565b925050819055508160008087815260200190815260200160002060020160008282546102009190610fe6565b925050819055505050505050565b60608060606000620151808686610225919061103c565b61022f9190610e6c565b1461026f576040517f08c379a0000000000000000000000000000000000000000000000000000000008152600401610266906110e2565b60405180910390fd5b60006001620151808787610283919061103c565b61028d9190611102565b6102979190610fe6565b90506000808790505b8681116102e35760008082815260200190815260200160002060000180549050826102cb9190610fe6565b915062015180816102dc9190610fe6565b90506102a0565b508067ffffffffffffffff8111156102fe576102fd6109fb565b5b60405190808252806020026020018201604052801561033157816020015b606081526020019060019003908161031c5790505b5094508167ffffffffffffffff81111561034e5761034d6109fb565b5b60405190808252806020026020018201604052801561037c5781602001602082028036833780820191505090505b5093508167ffffffffffffffff811115610399576103986109fb565b5b6040519080825280602002602001820160405280156103c75781602001602082028036833780820191505090505b50925060008060008990505b8881116105815760005b600080838152602001908152602001600020600001805490508110156104f457600080838152602001908152602001600020600001818154811061042457610423610f40565b5b90600052602060002001805461043990611162565b80601f016020809104026020016040519081016040528092919081815260200182805461046590611162565b80156104b25780601f10610487576101008083540402835291602001916104b2565b820191906000526020600020905b81548152906001019060200180831161049557829003601f168201915b50505050508985806104c390610f9e565b9650815181106104d6576104d5610f40565b5b602002602001018190525080806104ec90610f9e565b9150506103dd565b506000808281526020019081526020016000206001015487838151811061051e5761051d610f40565b5b6020026020010181815250506000808281526020019081526020016000206002015486838061054c90610f9e565b94508151811061055f5761055e610f40565b5b602002602001018181525050620151808161057a9190610fe6565b90506103d3565b50505050509250925092565b60606000839050600080600190505b600183516105aa919061103c565b8210156106105760006105be8787856107f5565b90507fffffffffffffffffffffffffffffffffffffffffffffffffffffffffffffffff81036105ed5750610610565b81806105f890610f9e565b9250506001816106089190610fe6565b92505061059c565b8067ffffffffffffffff81111561062a576106296109fb565b5b60405190808252806020026020018201604052801561065d57816020015b60608152602001906001900390816106485790505b50935060009150600090505b60018351610677919061103c565b8210156107ec57600061068b8787856107f5565b90507fffffffffffffffffffffffffffffffffffffffffffffffffffffffffffffffff81036106b957835190505b600083826106c7919061103c565b67ffffffffffffffff8111156106e0576106df6109fb565b5b6040519080825280601f01601f1916602001820160405280156107125781602001600182028036833780820191505090505b50905060008190506000808690505b848110156107a85787818151811061073c5761073b610f40565b5b602001015160f81c60f81b83838061075390610f9e565b94508151811061076657610765610f40565b5b60200101907effffffffffffffffffffffffffffffffffffffffffffffffffffffffffffff1916908160001a90535080806107a090610f9e565b915050610721565b506001846107b69190610fe6565b9550818886806107c590610f9e565b9750815181106107d8576107d7610f40565b5b602002602001018190525050505050610669565b50505092915050565b6000808490506000849050600181511461081257610811611193565b5b60008490505b82518110156108c5578160008151811061083557610834610f40565b5b602001015160f81c60f81b7effffffffffffffffffffffffffffffffffffffffffffffffffffffffffffff191683828151811061087557610874610f40565b5b602001015160f81c60f81b7effffffffffffffffffffffffffffffffffffffffffffffffffffffffffffff1916036108b2578093505050506108ec565b80806108bd90610f9e565b915050610818565b507fffffffffffffffffffffffffffffffffffffffffffffffffffffffffffffffff925050505b9392505050565b8280546108ff90611162565b90600052602060002090601f0160209004810192826109215760008555610968565b82601f1061093a57805160ff1916838001178555610968565b82800160010185558215610968579182015b8281111561096757825182559160200191906001019061094c565b5b5090506109759190610979565b5090565b5b8082111561099257600081600090555060010161097a565b5090565b6000604051905090565b600080fd5b600080fd5b6000819050919050565b6109bd816109aa565b81146109c857600080fd5b50565b6000813590506109da816109b4565b92915050565b600080fd5b600080fd5b6000601f19601f8301169050919050565b7f4e487b7100000000000000000000000000000000000000000000000000000000600052604160045260246000fd5b610a33826109ea565b810181811067ffffffffffffffff82111715610a5257610a516109fb565b5b80604052505050565b6000610a65610996565b9050610a718282610a2a565b919050565b600067ffffffffffffffff821115610a9157610a906109fb565b5b610a9a826109ea565b9050602081019050919050565b82818337600083830152505050565b6000610ac9610ac484610a76565b610a5b565b905082815260208101848484011115610ae557610ae46109e5565b5b610af0848285610aa7565b509392505050565b600082601f830112610b0d57610b0c6109e0565b5b8135610b1d848260208601610ab6565b91505092915050565b60008060008060808587031215610b4057610b3f6109a0565b5b6000610b4e878288016109cb565b945050602085013567ffffffffffffffff811115610b6f57610b6e6109a5565b5b610b7b87828801610af8565b9350506040610b8c878288016109cb565b9250506060610b9d878288016109cb565b91505092959194509250565b60008060408385031215610bc057610bbf6109a0565b5b6000610bce858286016109cb565b9250506020610bdf858286016109cb565b9150509250929050565b600081519050919050565b600082825260208201905092915050565b6000819050602082019050919050565b600081519050919050565b600082825260208201905092915050565b60005b83811015610c4f578082015181840152602081019050610c34565b83811115610c5e576000848401525b50505050565b6000610c6f82610c15565b610c798185610c20565b9350610c89818560208601610c31565b610c92816109ea565b840191505092915050565b6000610ca98383610c64565b905092915050565b6000602082019050919050565b6000610cc982610be9565b610cd38185610bf4565b935083602082028501610ce585610c05565b8060005b85811015610d215784840389528151610d028582610c9d565b9450610d0d83610cb1565b925060208a01995050600181019050610ce9565b50829750879550505050505092915050565b600081519050919050565b600082825260208201905092915050565b6000819050602082019050919050565b610d68816109aa565b82525050565b6000610d7a8383610d5f565b60208301905092915050565b6000602082019050919050565b6000610d9e82610d33565b610da88185610d3e565b9350610db383610d4f565b8060005b83811015610de4578151610dcb8882610d6e565b9750610dd683610d86565b925050600181019050610db7565b5085935050505092915050565b60006060820190508181036000830152610e0b8186610cbe565b90508181036020830152610e1f8185610d93565b90508181036040830152610e338184610d93565b9050949350505050565b7f4e487b7100000000000000000000000000000000000000000000000000000000600052601260045260246000fd5b6000610e77826109aa565b9150610e82836109aa565b925082610e9257610e91610e3d565b5b828206905092915050565b600082825260208201905092915050565b7f4461746520676976656e206d757374206861766520612074696d65206f66203060008201527f303a30303a303000000000000000000000000000000000000000000000000000602082015250565b6000610f0a602783610e9d565b9150610f1582610eae565b604082019050919050565b60006020820190508181036000830152610f3981610efd565b9050919050565b7f4e487b7100000000000000000000000000000000000000000000000000000000600052603260045260246000fd5b7f4e487b7100000000000000000000000000000000000000000000000000000000600052601160045260246000fd5b6000610fa9826109aa565b91507fffffffffffffffffffffffffffffffffffffffffffffffffffffffffffffffff8203610fdb57610fda610f6f565b5b600182019050919050565b6000610ff1826109aa565b9150610ffc836109aa565b9250827fffffffffffffffffffffffffffffffffffffffffffffffffffffffffffffffff0382111561103157611030610f6f565b5b828201905092915050565b6000611047826109aa565b9150611052836109aa565b92508282101561106557611064610f6f565b5b828203905092915050565b7f446174657320676976656e206d757374206861766520612074696d65206f662060008201527f30303a30303a3030000000000000000000000000000000000000000000000000602082015250565b60006110cc602883610e9d565b91506110d782611070565b604082019050919050565b600060208201905081810360008301526110fb816110bf565b9050919050565b600061110d826109aa565b9150611118836109aa565b92508261112857611127610e3d565b5b828204905092915050565b7f4e487b7100000000000000000000000000000000000000000000000000000000600052602260045260246000fd5b6000600282049050600182168061117a57607f821691505b60208210810361118d5761118c611133565b5b50919050565b7f4e487b7100000000000000000000000000000000000000000000000000000000600052600160045260246000fdfea2646970667358221220067d5288d7b78e85f152d124ae4c21bef0d46b9c5b2c661133f86740d667de8664736f6c634300080e0033",
  "immutableReferences": {},
  "source": "// SPDX-License-Identifier: MIT\npragma solidity ^0.8.7;\nimport \"./Strings.sol\";\n\ncontract Graphs {\n    using Strings for string;\n\n    // state variables\n    struct Day {\n        string[] keywords;\n        uint questions;\n        uint answers;\n    }\n\n    // map a uint that represents date to a custom struct\n    mapping(uint => Day) daysStorage;\n\n    // add keywords, question, answers\n    function addToDay(uint date, string memory newKeywordsString, uint newQuestions, uint newAnswers) public {\n        require(date % 86400 == 0 , \"Date given must have a time of 00:00:00\");\n        string[] memory newKeywords = newKeywordsString.split(\",\");\n        // add new keywords to day\n        for (uint i = 0; i < newKeywords.length; i++) {\n            daysStorage[date].keywords.push(newKeywords[i]);\n        }\n        // update questions/answers number\n        daysStorage[date].questions += newQuestions;\n        daysStorage[date].answers += newAnswers;\n    }\n\n    // get (keywords, questionsPerDay, answersPerDay) for a period of time (dateFrom, DateTo)\n    function getDays(uint dateFrom, uint dateTo) public view\n    returns (string[] memory keywords, uint[] memory questions, uint[] memory answers) {\n        require((dateTo - dateFrom) % 86400 == 0 , \"Dates given must have a time of 00:00:00\");\n        uint totalDays = ((dateTo - dateFrom) / 86400) + 1;\n        \n        // get number of all keywords that will be returned to create fixed size array\n        uint keywordsSize = 0;\n        for (uint tempDate = dateFrom; tempDate <= dateTo; tempDate += 86400) {\n            keywordsSize += daysStorage[tempDate].keywords.length;\n        }\n\n        // define accumulators to return\n        keywords = new string[](keywordsSize);\n        questions = new uint[](totalDays);\n        answers = new uint[](totalDays);\n\n        // add (all keywords)/(questions per day)/(answers per day) to return arrays\n        uint keywordsIndex = 0;\n        uint dayIndex = 0;\n        for (uint tempDate = dateFrom; tempDate <= dateTo; tempDate += 86400) {\n            for (uint k = 0; k < daysStorage[tempDate].keywords.length; k++) {\n                keywords[keywordsIndex++] = daysStorage[tempDate].keywords[k];\n            }\n            questions[dayIndex] = daysStorage[tempDate].questions;\n            answers[dayIndex++] = daysStorage[tempDate].answers;\n        }\n        return (keywords, questions, answers);\n    }\n\n}",
  "sourcePath": "/home/panos/Documents/GitHub/NTUA-Diploma-Thesis/blockchain-frontend/truffle/contracts/Graphs.sol",
  "compiler": {
    "name": "solc",
    "version": "0.8.14+commit.80d49f37.Emscripten.clang"
  },
  "schemaVersion": "3.4.7",
  "updatedAt": "2022-06-05T12:15:21.521Z",
  "networkType": "ethereum",
  "devdoc": {
    "kind": "dev",
    "methods": {},
    "version": 1
  },
  "userdoc": {
    "kind": "user",
    "methods": {},
    "version": 1
  }
}